{"abi":[{"type":"constructor","inputs":[{"name":"_storageContract","type":"address","internalType":"address"}],"stateMutability":"nonpayable"},{"type":"receive","stateMutability":"payable"},{"type":"function","name":"getBalance","inputs":[],"outputs":[{"name":"balance","type":"uint256","internalType":"uint256"}],"stateMutability":"view"},{"type":"function","name":"owner","inputs":[],"outputs":[{"name":"","type":"address","internalType":"address"}],"stateMutability":"view"},{"type":"function","name":"renounceOwnership","inputs":[],"outputs":[],"stateMutability":"nonpayable"},{"type":"function","name":"setStorageContract","inputs":[{"name":"_storageContract","type":"address","internalType":"address"}],"outputs":[],"stateMutability":"nonpayable"},{"type":"function","name":"sponsorGas","inputs":[{"name":"user","type":"address","internalType":"address"},{"name":"gasCost","type":"uint256","internalType":"uint256"}],"outputs":[],"stateMutability":"nonpayable"},{"type":"function","name":"storageContract","inputs":[],"outputs":[{"name":"","type":"address","internalType":"address"}],"stateMutability":"view"},{"type":"function","name":"transferOwnership","inputs":[{"name":"newOwner","type":"address","internalType":"address"}],"outputs":[],"stateMutability":"nonpayable"},{"type":"function","name":"withdraw","inputs":[{"name":"amount","type":"uint256","internalType":"uint256"}],"outputs":[],"stateMutability":"nonpayable"},{"type":"event","name":"GasSponsored","inputs":[{"name":"user","type":"address","indexed":true,"internalType":"address"},{"name":"gasCost","type":"uint256","indexed":false,"internalType":"uint256"}],"anonymous":false},{"type":"event","name":"OwnershipTransferred","inputs":[{"name":"previousOwner","type":"address","indexed":true,"internalType":"address"},{"name":"newOwner","type":"address","indexed":true,"internalType":"address"}],"anonymous":false},{"type":"event","name":"PaymasterFunded","inputs":[{"name":"funder","type":"address","indexed":true,"internalType":"address"},{"name":"amount","type":"uint256","indexed":false,"internalType":"uint256"}],"anonymous":false},{"type":"error","name":"OwnableInvalidOwner","inputs":[{"name":"owner","type":"address","internalType":"address"}]},{"type":"error","name":"OwnableUnauthorizedAccount","inputs":[{"name":"account","type":"address","internalType":"address"}]}],"bytecode":{"object":"0x60803460cd57601f61060d38819003918201601f19168301916001600160401b0383118484101760d15780849260209460405283398101031260cd57516001600160a01b0381169081900360cd57331560ba575f8054336001600160a01b0319821681178355604051939290916001600160a01b0316907f8be0079c531659141344cd1fd0a4f28419497f9722a3daafe3b4186f6b6457e09080a3600180546001600160a01b03191691909117905561052790816100e68239f35b631e4fbdf760e01b5f525f60045260245ffd5b5f80fd5b634e487b7160e01b5f52604160045260245ffdfe6080806040526004361015610048575b50361561001a575f80fd5b6040513481527fb2097ab3550c8bc1e581acecec9827cfa285137c2311429263ab8e6cdb814a7360203392a2005b5f3560e01c90816311ce0267146103d55750806312065fe0146103ba5780632e1a7d4d14610322578063715018a6146102cb5780638da5cb5b146102a4578063d2f4071814610178578063dc38b0a2146101355763f2fde38b146100ac575f61000f565b34610131576020366003190112610131576100c56103f8565b6100cd6104cb565b6001600160a01b0316801561011e575f80546001600160a01b03198116831782556001600160a01b0316907f8be0079c531659141344cd1fd0a4f28419497f9722a3daafe3b4186f6b6457e09080a3005b631e4fbdf760e01b5f525f60045260245ffd5b5f80fd5b346101315760203660031901126101315761014e6103f8565b6101566104cb565b600180546001600160a01b0319166001600160a01b0392909216919091179055005b34610131576040366003190112610131576101916103f8565b60015460243591906001600160a01b03163303610251576101b48247101561040e565b5f80808085325af16101c4610466565b5015610202576040519182526001600160a01b0316907f2f5b7da0b8502c9a04f1c60a92a12cc859cb3cefb8951253e2f1c0df6c65d28d90602090a2005b60405162461bcd60e51b815260206004820152602160248201527f4379636c655061796d61737465723a2047617320726566756e64206661696c656044820152601960fa1b6064820152608490fd5b60405162461bcd60e51b815260206004820152602560248201527f4379636c655061796d61737465723a204f6e6c792073746f7261676520636f6e6044820152641d1c9858dd60da1b6064820152608490fd5b34610131575f366003190112610131575f546040516001600160a01b039091168152602090f35b34610131575f366003190112610131576102e36104cb565b5f80546001600160a01b0319811682556001600160a01b03167f8be0079c531659141344cd1fd0a4f28419497f9722a3daafe3b4186f6b6457e08280a3005b34610131576020366003190112610131575f8080806004356103426104cb565b61034e4782111561040e565b81546001600160a01b03165af1610363610466565b501561036b57005b60405162461bcd60e51b815260206004820152602160248201527f4379636c655061796d61737465723a205769746864726177616c206661696c656044820152601960fa1b6064820152608490fd5b34610131575f36600319011261013157602047604051908152f35b34610131575f366003190112610131576001546001600160a01b03168152602090f35b600435906001600160a01b038216820361013157565b1561041557565b60405162461bcd60e51b8152602060048201526024808201527f4379636c655061796d61737465723a20496e73756666696369656e742062616c604482015263616e636560e01b6064820152608490fd5b3d156104c6573d9067ffffffffffffffff82116104b25760405191601f8101601f19908116603f0116830167ffffffffffffffff8111848210176104b25760405282523d5f602084013e565b634e487b7160e01b5f52604160045260245ffd5b606090565b5f546001600160a01b031633036104de57565b63118cdaa760e01b5f523360045260245ffdfea2646970667358221220e9bdaa7b734f7f88a27c417574b357f09580a71151e0c7f17665a6bb0713029364736f6c634300081e0033","linkReferences":{}},"methodIdentifiers":{"getBalance()":"12065fe0","owner()":"8da5cb5b","renounceOwnership()":"715018a6","setStorageContract(address)":"dc38b0a2","sponsorGas(address,uint256)":"d2f40718","storageContract()":"11ce0267","transferOwnership(address)":"f2fde38b","withdraw(uint256)":"2e1a7d4d"},"id":19}