{"abi":[{"type":"function","name":"MAX_BATCH_SIZE","inputs":[],"outputs":[{"name":"","type":"uint256","internalType":"uint256"}],"stateMutability":"view"},{"type":"function","name":"MAX_DATA_SIZE","inputs":[],"outputs":[{"name":"","type":"uint256","internalType":"uint256"}],"stateMutability":"view"},{"type":"function","name":"batchStoreEncryptedData","inputs":[{"name":"encryptedDataArray","type":"string[]","internalType":"string[]"},{"name":"localTimestamps","type":"uint256[]","internalType":"uint256[]"}],"outputs":[],"stateMutability":"nonpayable"},{"type":"function","name":"clearMyData","inputs":[],"outputs":[],"stateMutability":"nonpayable"},{"type":"function","name":"getContractStats","inputs":[],"outputs":[{"name":"totalEntries","type":"uint256","internalType":"uint256"}],"stateMutability":"view"},{"type":"function","name":"getEncryptedData","inputs":[{"name":"user","type":"address","internalType":"address"}],"outputs":[{"name":"entries","type":"tuple[]","internalType":"struct CycleDataStorage.EncryptedEntry[]","components":[{"name":"encryptedData","type":"string","internalType":"string"},{"name":"timestamp","type":"uint256","internalType":"uint256"},{"name":"localTimestamp","type":"uint256","internalType":"uint256"},{"name":"entryId","type":"uint256","internalType":"uint256"}]},{"name":"lastSync","type":"uint256","internalType":"uint256"},{"name":"totalCount","type":"uint256","internalType":"uint256"}],"stateMutability":"view"},{"type":"function","name":"getEncryptedDataAfterTimestamp","inputs":[{"name":"user","type":"address","internalType":"address"},{"name":"afterTimestamp","type":"uint256","internalType":"uint256"}],"outputs":[{"name":"entries","type":"tuple[]","internalType":"struct CycleDataStorage.EncryptedEntry[]","components":[{"name":"encryptedData","type":"string","internalType":"string"},{"name":"timestamp","type":"uint256","internalType":"uint256"},{"name":"localTimestamp","type":"uint256","internalType":"uint256"},{"name":"entryId","type":"uint256","internalType":"uint256"}]}],"stateMutability":"view"},{"type":"function","name":"getEncryptedDataRange","inputs":[{"name":"user","type":"address","internalType":"address"},{"name":"start","type":"uint256","internalType":"uint256"},{"name":"end","type":"uint256","internalType":"uint256"}],"outputs":[{"name":"entries","type":"tuple[]","internalType":"struct CycleDataStorage.EncryptedEntry[]","components":[{"name":"encryptedData","type":"string","internalType":"string"},{"name":"timestamp","type":"uint256","internalType":"uint256"},{"name":"localTimestamp","type":"uint256","internalType":"uint256"},{"name":"entryId","type":"uint256","internalType":"uint256"}]}],"stateMutability":"view"},{"type":"function","name":"getLastSyncTimestamp","inputs":[{"name":"user","type":"address","internalType":"address"}],"outputs":[{"name":"","type":"uint256","internalType":"uint256"}],"stateMutability":"view"},{"type":"function","name":"getMyShares","inputs":[],"outputs":[{"name":"shares","type":"tuple[]","internalType":"struct CycleDataStorage.SharedDataPackage[]","components":[{"name":"ipfsHash","type":"string","internalType":"string"},{"name":"recipient","type":"address","internalType":"address"},{"name":"shareType","type":"uint8","internalType":"uint8"},{"name":"timestamp","type":"uint256","internalType":"uint256"}]}],"stateMutability":"view"},{"type":"function","name":"getReceivedShareCount","inputs":[{"name":"user","type":"address","internalType":"address"}],"outputs":[{"name":"count","type":"uint256","internalType":"uint256"}],"stateMutability":"view"},{"type":"function","name":"getShareCount","inputs":[{"name":"user","type":"address","internalType":"address"}],"outputs":[{"name":"count","type":"uint256","internalType":"uint256"}],"stateMutability":"view"},{"type":"function","name":"getSharedByUser","inputs":[{"name":"user","type":"address","internalType":"address"}],"outputs":[{"name":"shares","type":"tuple[]","internalType":"struct CycleDataStorage.SharedDataPackage[]","components":[{"name":"ipfsHash","type":"string","internalType":"string"},{"name":"recipient","type":"address","internalType":"address"},{"name":"shareType","type":"uint8","internalType":"uint8"},{"name":"timestamp","type":"uint256","internalType":"uint256"}]}],"stateMutability":"view"},{"type":"function","name":"getSharedWithMe","inputs":[],"outputs":[{"name":"shares","type":"tuple[]","internalType":"struct CycleDataStorage.SharedDataPackage[]","components":[{"name":"ipfsHash","type":"string","internalType":"string"},{"name":"recipient","type":"address","internalType":"address"},{"name":"shareType","type":"uint8","internalType":"uint8"},{"name":"timestamp","type":"uint256","internalType":"uint256"}]}],"stateMutability":"view"},{"type":"function","name":"getSharedWithUser","inputs":[{"name":"user","type":"address","internalType":"address"}],"outputs":[{"name":"shares","type":"tuple[]","internalType":"struct CycleDataStorage.SharedDataPackage[]","components":[{"name":"ipfsHash","type":"string","internalType":"string"},{"name":"recipient","type":"address","internalType":"address"},{"name":"shareType","type":"uint8","internalType":"uint8"},{"name":"timestamp","type":"uint256","internalType":"uint256"}]}],"stateMutability":"view"},{"type":"function","name":"getUserEntryCount","inputs":[{"name":"user","type":"address","internalType":"address"}],"outputs":[{"name":"","type":"uint256","internalType":"uint256"}],"stateMutability":"view"},{"type":"function","name":"shareData","inputs":[{"name":"recipient","type":"address","internalType":"address"},{"name":"ipfsHash","type":"string","internalType":"string"},{"name":"shareType","type":"uint8","internalType":"uint8"}],"outputs":[],"stateMutability":"nonpayable"},{"type":"function","name":"sharedByUser","inputs":[{"name":"","type":"address","internalType":"address"},{"name":"","type":"uint256","internalType":"uint256"}],"outputs":[{"name":"ipfsHash","type":"string","internalType":"string"},{"name":"recipient","type":"address","internalType":"address"},{"name":"shareType","type":"uint8","internalType":"uint8"},{"name":"timestamp","type":"uint256","internalType":"uint256"}],"stateMutability":"view"},{"type":"function","name":"sharedToUser","inputs":[{"name":"","type":"address","internalType":"address"},{"name":"","type":"uint256","internalType":"uint256"}],"outputs":[{"name":"ipfsHash","type":"string","internalType":"string"},{"name":"recipient","type":"address","internalType":"address"},{"name":"shareType","type":"uint8","internalType":"uint8"},{"name":"timestamp","type":"uint256","internalType":"uint256"}],"stateMutability":"view"},{"type":"function","name":"storeEncryptedData","inputs":[{"name":"encryptedData","type":"string","internalType":"string"},{"name":"localTimestamp","type":"uint256","internalType":"uint256"}],"outputs":[],"stateMutability":"nonpayable"},{"type":"event","name":"DataBatchStored","inputs":[{"name":"user","type":"address","indexed":true,"internalType":"address"},{"name":"entriesCount","type":"uint256","indexed":false,"internalType":"uint256"},{"name":"timestamp","type":"uint256","indexed":false,"internalType":"uint256"}],"anonymous":false},{"type":"event","name":"DataRetrieved","inputs":[{"name":"user","type":"address","indexed":true,"internalType":"address"},{"name":"entriesCount","type":"uint256","indexed":false,"internalType":"uint256"}],"anonymous":false},{"type":"event","name":"DataShared","inputs":[{"name":"sharer","type":"address","indexed":true,"internalType":"address"},{"name":"recipient","type":"address","indexed":true,"internalType":"address"},{"name":"ipfsHash","type":"string","indexed":false,"internalType":"string"},{"name":"shareType","type":"uint8","indexed":false,"internalType":"uint8"}],"anonymous":false},{"type":"event","name":"DataStored","inputs":[{"name":"user","type":"address","indexed":true,"internalType":"address"},{"name":"entryId","type":"uint256","indexed":true,"internalType":"uint256"},{"name":"timestamp","type":"uint256","indexed":false,"internalType":"uint256"}],"anonymous":false},{"type":"event","name":"UserDataCleared","inputs":[{"name":"user","type":"address","indexed":true,"internalType":"address"}],"anonymous":false}],"bytecode":{"object":"0x608080604052346015576116e9908161001a8239f35b5f80fdfe6080806040526004361015610012575f80fd5b5f3560e01c90816306f53cc614610e44575080630768b42614610d9857806316c895bb14610beb57806322fce66f14610bcf5780632d4b4e0314610b8a5780633e83fe3614610ade578063474ed0771461093d57806354eb359114610903578063585ca84414610846578063729d84601461080e578063806c863e14610795578063817b35831461068c5780638c5b44d4146104265780639218b0de14610375578063995baa011461027c578063b00578e3146101bb578063b2a8116a14610181578063cfdbf25414610166578063dfe6b5d6146101495763eade185a146100f8575f80fd5b34610145576040366003190112610145576004356001600160401b0381116101455761012b610143913690600401611167565b6101396127108211156112ba565b60243591336114f0565b005b5f80fd5b34610145575f366003190112610145576020600354604051908152f35b34610145575f36600319011261014557602060405160328152f35b34610145576020366003190112610145576001600160a01b036101a2610e78565b165f525f6020526020600260405f200154604051908152f35b34610145576020366003190112610145576001600160a01b036101dc610e78565b165f52600260205260405f2080546101f381611194565b916102016040519384611041565b81835260208301905f5260205f205f915b83831061022b57604051806102278782610eb2565b0390f35b6003602060019260405161023e81611012565b61024786611062565b815260ff85870154868060a01b0381168584015260a01c16604082015260028601546060820152815201920192019190610212565b3461014557604036600319011261014557610295610e78565b6001600160a01b03165f9081526020819052604081208054909160243590805b83811061034357506102c6906111ab565b925f915f5b8481106102e8576040516020808252819061022790820189610f42565b8160016102f58386611213565b50015411610306575b6001016102cb565b9261033b60019161032061031a8787611213565b50611240565b61032a828a61122c565b52610335818961122c565b506114e2565b9390506102fe565b8260016103508388611213565b50015411610361575b6001016102b5565b9061036d6001916114e2565b919050610359565b34610145576020366003190112610145576001600160a01b03610396610e78565b165f525f60205260405f2060018101546002820154908254916103b883611194565b926103c66040519485611041565b80845260208401945f5260205f20945f905b828210610408576103f9868686604051938493606085526060850190610f42565b91602084015260408301520390f35b600460206001926104188a611240565b8152019701910190956103d8565b346101455760603660031901126101455761043f610e78565b6024356001600160401b0381116101455761045e903690600401611167565b90916044359060ff8216809203610145576001600160a01b031692831561063b573384146105e1578215610590576002821161053f577fccbcde80ab83c70dcaabb6ff3b685028b96ef5fcc84ef67f6877971ff25aa4dd9161050a6040516104c581611012565b6104d036878661131b565b8152866020820152826040820152426060820152335f5260016020526104f98160405f20611360565b865f52600260205260405f20611360565b83604051926040845281604085015260608401375f6060858401015260208201526060813394601f80199101168101030190a3005b60405162461bcd60e51b8152602060048201526024808201527f4379636c654461746153746f726167653a20496e76616c6964207368617265206044820152637479706560e01b6064820152608490fd5b60405162461bcd60e51b815260206004820152602360248201527f4379636c654461746153746f726167653a20496e76616c6964204950465320686044820152620c2e6d60eb1b6064820152608490fd5b60405162461bcd60e51b815260206004820152602c60248201527f4379636c654461746153746f726167653a2043616e6e6f74207368617265207760448201526b34ba34103cb7bab939b2b63360a11b6064820152608490fd5b60405162461bcd60e51b815260206004820152602360248201527f4379636c654461746153746f726167653a20496e76616c696420726563697069604482015262195b9d60ea1b6064820152608490fd5b34610145575f36600319011261014557335f525f60205260405f2080545f8255806106e5575b5f6002838260018201550155337f626625ff1b898b009fac170363c361e94c6185e694712a660124a5ea7885e17c5f80a2005b6001600160fe1b038116810361078157815f5260205f209060021b8101905b81811061071157506106b2565b8061071e60049254610fda565b8061073d575b505f60018201555f60028201555f600382015501610704565b601f811160011461075357505f81555b84610724565b61077090825f526001601f60205f20920160051c82019101611305565b805f525f602081208183555561074d565b634e487b7160e01b5f52601160045260245ffd5b34610145576040366003190112610145576107ae610e78565b6001600160a01b03165f908152600260205260409020805460243590811015610145576107da91610fc1565b506107e481611062565b6102276002600184015493015460405193849360ff8260a01c169160018060a01b03169085611102565b34610145576020366003190112610145576001600160a01b0361082f610e78565b165f526001602052602060405f2054604051908152f35b34610145576020366003190112610145576001600160a01b03610867610e78565b165f52600160205260405f20805461087e81611194565b9161088c6040519384611041565b81835260208301905f5260205f205f915b8383106108b257604051806102278782610eb2565b600360206001926040516108c581611012565b6108ce86611062565b815260ff85870154868060a01b0381168584015260a01c1660408201526002860154606082015281520192019201919061089d565b34610145576020366003190112610145576001600160a01b03610924610e78565b165f525f6020526020600160405f200154604051908152f35b34610145576040366003190112610145576004356001600160401b0381116101455761096d903690600401611137565b906024356001600160401b0381116101455761098d903690600401611137565b919060328411610a8f57828403610a3a575f5b8481106109dc57846040519081524260208201527fb35b97af951473a0cdf8bc3a4260aa0f4954083a548545a8a68ad61e039dfcdf60403392a2005b6109f66127106109ed838887611279565b905011156112ba565b610a01818685611279565b858392931015610a2657600192610a20918360051b86013591336114f0565b016109a0565b634e487b7160e01b5f52603260045260245ffd5b60405162461bcd60e51b815260206004820152602760248201527f4379636c654461746153746f726167653a204172726179206c656e677468206d6044820152660d2e6dac2e8c6d60cb1b6064820152608490fd5b60405162461bcd60e51b815260206004820152602160248201527f4379636c654461746153746f726167653a20426174636820746f6f206c6172676044820152606560f81b6064820152608490fd5b34610145575f36600319011261014557335f52600160205260405f208054610b0581611194565b91610b136040519384611041565b81835260208301905f5260205f205f915b838310610b3957604051806102278782610eb2565b60036020600192604051610b4c81611012565b610b5586611062565b815260ff85870154868060a01b0381168584015260a01c16604082015260028601546060820152815201920192019190610b24565b3461014557604036600319011261014557610ba3610e78565b6001600160a01b03165f908152600160205260409020805460243590811015610145576107da91610fc1565b34610145575f3660031901126101455760206040516127108152f35b3461014557606036600319011261014557610c04610e78565b6001600160a01b03165f9081526020819052604090208054604435906024359080821015610d3f578211610ce85781811015610ca35780820391821161078157610c4d826111ab565b925f5b838110610c6d576040516020808252819061022790820188610f42565b8083019081841161078157610c8761031a60019385611213565b610c91828861122c565b52610c9c818761122c565b5001610c50565b60405162461bcd60e51b815260206004820152601f60248201527f4379636c654461746153746f726167653a20496e76616c69642072616e6765006044820152606490fd5b60405162461bcd60e51b815260206004820152602960248201527f4379636c654461746153746f726167653a20456e6420696e646578206f7574206044820152686f6620626f756e647360b81b6064820152608490fd5b60405162461bcd60e51b815260206004820152602b60248201527f4379636c654461746153746f726167653a20537461727420696e646578206f7560448201526a74206f6620626f756e647360a81b6064820152608490fd5b34610145575f36600319011261014557335f52600260205260405f208054610dbf81611194565b91610dcd6040519384611041565b81835260208301905f5260205f205f915b838310610df357604051806102278782610eb2565b60036020600192604051610e0681611012565b610e0f86611062565b815260ff85870154868060a01b0381168584015260a01c16604082015260028601546060820152815201920192019190610dde565b34610145576020366003190112610145576020906001600160a01b03610e68610e78565b165f526002825260405f20548152f35b600435906001600160a01b038216820361014557565b805180835260209291819084018484015e5f828201840152601f01601f1916010190565b602081016020825282518091526040820191602060408360051b8301019401925f915b838310610ee457505050505090565b9091929394602080600192603f19858203018652885190606080610f118451608085526080850190610e8e565b93878060a01b0386820151168685015260ff6040820151166040850152015191015297019301930191939290610ed5565b9080602083519182815201916020808360051b8301019401925f915b838310610f6d57505050505090565b9091929394602080600192601f19858203018652885190606080610f9a8451608085526080850190610e8e565b93858101518685015260408101516040850152015191015297019301930191939290610f5e565b8054821015610a26575f52600360205f20910201905f90565b90600182811c92168015611008575b6020831014610ff457565b634e487b7160e01b5f52602260045260245ffd5b91607f1691610fe9565b608081019081106001600160401b0382111761102d57604052565b634e487b7160e01b5f52604160045260245ffd5b90601f801991011681019081106001600160401b0382111761102d57604052565b9060405191825f82549261107584610fda565b80845293600181169081156110e0575060011461109c575b5061109a92500383611041565b565b90505f9291925260205f20905f915b8183106110c457505090602061109a928201015f61108d565b60209193508060019154838589010152019101909184926110ab565b90506020925061109a94915060ff191682840152151560051b8201015f61108d565b9060609295949361111d60ff92608085526080850190610e8e565b6001600160a01b0390971660208401521660408201520152565b9181601f84011215610145578235916001600160401b038311610145576020808501948460051b01011161014557565b9181601f84011215610145578235916001600160401b038311610145576020838186019501011161014557565b6001600160401b03811161102d5760051b60200190565b906111b582611194565b6111c26040519182611041565b82815280926111d3601f1991611194565b01905f5b8281106111e357505050565b6020906040516111f281611012565b606081525f838201525f60408201525f6060820152828285010152016111d7565b8054821015610a26575f5260205f209060021b01905f90565b8051821015610a265760209160051b010190565b9060405161124d81611012565b60606003829461125c81611062565b845260018101546020850152600281015460408501520154910152565b9190811015610a265760051b81013590601e19813603018212156101455701908135916001600160401b038311610145576020018236038113610145579190565b156112c157565b606460405162461bcd60e51b815260206004820152602060248201527f4379636c654461746153746f726167653a204461746120746f6f206c617267656044820152fd5b818110611310575050565b5f8155600101611305565b9291926001600160401b03821161102d5760405191611344601f8201601f191660200184611041565b829481845281830111610145578281602093845f960137010152565b8054600160401b81101561102d5761137d91600182018155610fc1565b9190916114cf5780518051906001600160401b03821161102d576113a18454610fda565b601f8111611494575b50602090601f831160011461142c5782606093600295936113e0935f92611421575b50508160011b915f199060031b1c19161790565b84555b6001840160018060a01b0360208301511681549060ff60a01b604085015160a01b16916affffffffffffffffffffff60a81b16171790550151910155565b015190505f806113cc565b90601f19831691855f52815f20925f5b81811061147c57509260019285926060966002989610611464575b505050811b0184556113e3565b01515f1960f88460031b161c191690555f8080611457565b9293602060018192878601518155019501930161143c565b6114bf90855f5260205f20601f850160051c810191602086106114c5575b601f0160051c0190611305565b5f6113aa565b90915081906114b2565b634e487b7160e01b5f525f60045260245ffd5b5f1981146107815760010190565b90929161151a6115016003546114e2565b94856003556040519261151384611012565b369161131b565b8152602081019142835260408201938452606082019085825260018060a01b031693845f525f60205260405f20938454600160401b81101561102d578060016115669201875586611213565b9490946114cf57518051906001600160401b03821161102d576115898654610fda565b601f8111611683575b50602090601f831160011461161c5791806115c7926003979695945f926114215750508160011b915f199060031b1c19161790565b85555b51600185015551600284015551910155600281016115e881546114e2565b90556001429101557f196d776bd3df5dc8f3c877beec22a7b888b8ca883038df0da6b0f3fc9de3816d6020604051428152a3565b90601f19831691875f52815f20925f5b81811061166b57509160019391856003999897969410611654575b505050811b0185556115ca565b01515f1983891b60f8161c191690555f8080611647565b9293602060018192878601518155019501930161162c565b6116ad90875f5260205f20601f850160051c810191602086106114c557601f0160051c0190611305565b5f61159256fea26469706673582212203cffc3ca1779fb5f1c5e37538c421c50f898f4977b5bc05e57e8f131df7df58464736f6c634300081e0033","linkReferences":{}},"methodIdentifiers":{"MAX_BATCH_SIZE()":"cfdbf254","MAX_DATA_SIZE()":"22fce66f","batchStoreEncryptedData(string[],uint256[])":"474ed077","clearMyData()":"817b3583","getContractStats()":"dfe6b5d6","getEncryptedData(address)":"9218b0de","getEncryptedDataAfterTimestamp(address,uint256)":"995baa01","getEncryptedDataRange(address,uint256,uint256)":"16c895bb","getLastSyncTimestamp(address)":"54eb3591","getMyShares()":"3e83fe36","getReceivedShareCount(address)":"06f53cc6","getShareCount(address)":"729d8460","getSharedByUser(address)":"585ca844","getSharedWithMe()":"0768b426","getSharedWithUser(address)":"b00578e3","getUserEntryCount(address)":"b2a8116a","shareData(address,string,uint8)":"8c5b44d4","sharedByUser(address,uint256)":"2d4b4e03","sharedToUser(address,uint256)":"806c863e","storeEncryptedData(string,uint256)":"eade185a"},"id":23}