{"abi":[{"type":"function","name":"MAX_BATCH_SIZE","inputs":[],"outputs":[{"name":"","type":"uint256","internalType":"uint256"}],"stateMutability":"view"},{"type":"function","name":"MAX_DATA_SIZE","inputs":[],"outputs":[{"name":"","type":"uint256","internalType":"uint256"}],"stateMutability":"view"},{"type":"function","name":"batchStoreEncryptedData","inputs":[{"name":"encryptedDataArray","type":"string[]","internalType":"string[]"},{"name":"localTimestamps","type":"uint256[]","internalType":"uint256[]"}],"outputs":[],"stateMutability":"nonpayable"},{"type":"function","name":"clearMyData","inputs":[],"outputs":[],"stateMutability":"nonpayable"},{"type":"function","name":"getContractStats","inputs":[],"outputs":[{"name":"totalEntries","type":"uint256","internalType":"uint256"}],"stateMutability":"view"},{"type":"function","name":"getEncryptedData","inputs":[{"name":"user","type":"address","internalType":"address"}],"outputs":[{"name":"entries","type":"tuple[]","internalType":"struct CycleDataStorage.EncryptedEntry[]","components":[{"name":"encryptedData","type":"string","internalType":"string"},{"name":"timestamp","type":"uint256","internalType":"uint256"},{"name":"localTimestamp","type":"uint256","internalType":"uint256"},{"name":"entryId","type":"uint256","internalType":"uint256"}]},{"name":"lastSync","type":"uint256","internalType":"uint256"},{"name":"totalCount","type":"uint256","internalType":"uint256"}],"stateMutability":"view"},{"type":"function","name":"getEncryptedDataAfterTimestamp","inputs":[{"name":"user","type":"address","internalType":"address"},{"name":"afterTimestamp","type":"uint256","internalType":"uint256"}],"outputs":[{"name":"entries","type":"tuple[]","internalType":"struct CycleDataStorage.EncryptedEntry[]","components":[{"name":"encryptedData","type":"string","internalType":"string"},{"name":"timestamp","type":"uint256","internalType":"uint256"},{"name":"localTimestamp","type":"uint256","internalType":"uint256"},{"name":"entryId","type":"uint256","internalType":"uint256"}]}],"stateMutability":"view"},{"type":"function","name":"getEncryptedDataRange","inputs":[{"name":"user","type":"address","internalType":"address"},{"name":"start","type":"uint256","internalType":"uint256"},{"name":"end","type":"uint256","internalType":"uint256"}],"outputs":[{"name":"entries","type":"tuple[]","internalType":"struct CycleDataStorage.EncryptedEntry[]","components":[{"name":"encryptedData","type":"string","internalType":"string"},{"name":"timestamp","type":"uint256","internalType":"uint256"},{"name":"localTimestamp","type":"uint256","internalType":"uint256"},{"name":"entryId","type":"uint256","internalType":"uint256"}]}],"stateMutability":"view"},{"type":"function","name":"getLastSyncTimestamp","inputs":[{"name":"user","type":"address","internalType":"address"}],"outputs":[{"name":"","type":"uint256","internalType":"uint256"}],"stateMutability":"view"},{"type":"function","name":"getMyShares","inputs":[],"outputs":[{"name":"shares","type":"tuple[]","internalType":"struct CycleDataStorage.SharedDataPackage[]","components":[{"name":"ipfsHash","type":"string","internalType":"string"},{"name":"sharer","type":"address","internalType":"address"},{"name":"recipient","type":"address","internalType":"address"},{"name":"shareType","type":"uint8","internalType":"uint8"},{"name":"timestamp","type":"uint256","internalType":"uint256"}]}],"stateMutability":"view"},{"type":"function","name":"getReceivedShareCount","inputs":[{"name":"user","type":"address","internalType":"address"}],"outputs":[{"name":"count","type":"uint256","internalType":"uint256"}],"stateMutability":"view"},{"type":"function","name":"getShareCount","inputs":[{"name":"user","type":"address","internalType":"address"}],"outputs":[{"name":"count","type":"uint256","internalType":"uint256"}],"stateMutability":"view"},{"type":"function","name":"getSharedByUser","inputs":[{"name":"user","type":"address","internalType":"address"}],"outputs":[{"name":"shares","type":"tuple[]","internalType":"struct CycleDataStorage.SharedDataPackage[]","components":[{"name":"ipfsHash","type":"string","internalType":"string"},{"name":"sharer","type":"address","internalType":"address"},{"name":"recipient","type":"address","internalType":"address"},{"name":"shareType","type":"uint8","internalType":"uint8"},{"name":"timestamp","type":"uint256","internalType":"uint256"}]}],"stateMutability":"view"},{"type":"function","name":"getSharedWithMe","inputs":[],"outputs":[{"name":"shares","type":"tuple[]","internalType":"struct CycleDataStorage.SharedDataPackage[]","components":[{"name":"ipfsHash","type":"string","internalType":"string"},{"name":"sharer","type":"address","internalType":"address"},{"name":"recipient","type":"address","internalType":"address"},{"name":"shareType","type":"uint8","internalType":"uint8"},{"name":"timestamp","type":"uint256","internalType":"uint256"}]}],"stateMutability":"view"},{"type":"function","name":"getSharedWithUser","inputs":[{"name":"user","type":"address","internalType":"address"}],"outputs":[{"name":"shares","type":"tuple[]","internalType":"struct CycleDataStorage.SharedDataPackage[]","components":[{"name":"ipfsHash","type":"string","internalType":"string"},{"name":"sharer","type":"address","internalType":"address"},{"name":"recipient","type":"address","internalType":"address"},{"name":"shareType","type":"uint8","internalType":"uint8"},{"name":"timestamp","type":"uint256","internalType":"uint256"}]}],"stateMutability":"view"},{"type":"function","name":"getUserEntryCount","inputs":[{"name":"user","type":"address","internalType":"address"}],"outputs":[{"name":"","type":"uint256","internalType":"uint256"}],"stateMutability":"view"},{"type":"function","name":"shareData","inputs":[{"name":"recipient","type":"address","internalType":"address"},{"name":"ipfsHash","type":"string","internalType":"string"},{"name":"shareType","type":"uint8","internalType":"uint8"}],"outputs":[],"stateMutability":"nonpayable"},{"type":"function","name":"shareDataSponsored","inputs":[{"name":"sharer","type":"address","internalType":"address"},{"name":"recipient","type":"address","internalType":"address"},{"name":"ipfsHash","type":"string","internalType":"string"},{"name":"shareType","type":"uint8","internalType":"uint8"}],"outputs":[],"stateMutability":"nonpayable"},{"type":"function","name":"sharedByUser","inputs":[{"name":"","type":"address","internalType":"address"},{"name":"","type":"uint256","internalType":"uint256"}],"outputs":[{"name":"ipfsHash","type":"string","internalType":"string"},{"name":"sharer","type":"address","internalType":"address"},{"name":"recipient","type":"address","internalType":"address"},{"name":"shareType","type":"uint8","internalType":"uint8"},{"name":"timestamp","type":"uint256","internalType":"uint256"}],"stateMutability":"view"},{"type":"function","name":"sharedToUser","inputs":[{"name":"","type":"address","internalType":"address"},{"name":"","type":"uint256","internalType":"uint256"}],"outputs":[{"name":"ipfsHash","type":"string","internalType":"string"},{"name":"sharer","type":"address","internalType":"address"},{"name":"recipient","type":"address","internalType":"address"},{"name":"shareType","type":"uint8","internalType":"uint8"},{"name":"timestamp","type":"uint256","internalType":"uint256"}],"stateMutability":"view"},{"type":"function","name":"storeEncryptedData","inputs":[{"name":"encryptedData","type":"string","internalType":"string"},{"name":"localTimestamp","type":"uint256","internalType":"uint256"}],"outputs":[],"stateMutability":"nonpayable"},{"type":"event","name":"DataBatchStored","inputs":[{"name":"user","type":"address","indexed":true,"internalType":"address"},{"name":"entriesCount","type":"uint256","indexed":false,"internalType":"uint256"},{"name":"timestamp","type":"uint256","indexed":false,"internalType":"uint256"}],"anonymous":false},{"type":"event","name":"DataRetrieved","inputs":[{"name":"user","type":"address","indexed":true,"internalType":"address"},{"name":"entriesCount","type":"uint256","indexed":false,"internalType":"uint256"}],"anonymous":false},{"type":"event","name":"DataShared","inputs":[{"name":"sharer","type":"address","indexed":true,"internalType":"address"},{"name":"recipient","type":"address","indexed":true,"internalType":"address"},{"name":"ipfsHash","type":"string","indexed":false,"internalType":"string"},{"name":"shareType","type":"uint8","indexed":false,"internalType":"uint8"}],"anonymous":false},{"type":"event","name":"DataStored","inputs":[{"name":"user","type":"address","indexed":true,"internalType":"address"},{"name":"entryId","type":"uint256","indexed":true,"internalType":"uint256"},{"name":"timestamp","type":"uint256","indexed":false,"internalType":"uint256"}],"anonymous":false},{"type":"event","name":"UserDataCleared","inputs":[{"name":"user","type":"address","indexed":true,"internalType":"address"}],"anonymous":false}],"bytecode":{"object":"0x60808060405234601557611935908161001a8239f35b5f80fdfe6080806040526004361015610012575f80fd5b5f3560e01c90816306f53cc614610eba575080630768b42614610dfd57806316c895bb14610c5057806322fce66f14610c345780632d4b4e0314610bef578063340d279414610a825780633e83fe36146109c5578063474ed0771461082457806354eb3591146107ea578063585ca8441461071c578063729d8460146106e4578063806c863e1461065d578063817b3583146105545780638c5b44d4146104425780639218b0de14610391578063995baa0114610298578063b00578e3146101c6578063b2a8116a1461018c578063cfdbf25414610171578063dfe6b5d6146101545763eade185a14610103575f80fd5b34610150576040366003190112610150576004356001600160401b0381116101505761013661014e9136906004016111e0565b6101446127108211156116e3565b602435913361173c565b005b5f80fd5b34610150575f366003190112610150576020600354604051908152f35b34610150575f36600319011261015057602060405160328152f35b34610150576020366003190112610150576001600160a01b036101ad610eee565b165f525f6020526020600260405f200154604051908152f35b34610150576020366003190112610150576001600160a01b036101e7610eee565b165f52600260205260405f2080546101fe8161123d565b9161020c60405193846110e3565b81835260208301905f5260205f205f915b83831061023657604051806102328782610f28565b0390f35b6004602060019260405161024981611099565b61025286611104565b8152848060a01b0385870154168382015260ff6002870154868060a01b038116604084015260a01c1660608201526003860154608082015281520192019201919061021d565b34610150576040366003190112610150576102b1610eee565b6001600160a01b03165f9081526020819052604081208054909160243590805b83811061035f57506102e290611254565b925f915f5b848110610304576040516020808252819061023290820189610fc9565b8160016103118386611048565b50015411610322575b6001016102e7565b9261035760019161033c6103368787611048565b506112d0565b610346828a6112bc565b5261035181896112bc565b5061172e565b93905061031a565b82600161036c8388611048565b5001541161037d575b6001016102d1565b9061038960019161172e565b919050610375565b34610150576020366003190112610150576001600160a01b036103b2610eee565b165f525f60205260405f2060018101546002820154908254916103d48361123d565b926103e260405194856110e3565b80845260208401945f5260205f20945f905b82821061042457610415868686604051938493606085526060850190610fc9565b91602084015260408301520390f35b600460206001926104348a6112d0565b8152019701910190956103f4565b346101505760603660031901126101505761045b610eee565b6024356001600160401b0381116101505761047a9036906004016111e0565b9160443560ff8116938482036101505761053e7fccbcde80ab83c70dcaabb6ff3b685028b96ef5fcc84ef67f6877971ff25aa4dd9360018060a01b0316956104c3871515611309565b6104cf33881415611361565b6104da8315156113c2565b6104e7600282111561141a565b604051906104f482611099565b6104ff368589611472565b82523360208301528760408301526060820152426080820152335f52600160205261052d8160405f206114cd565b865f52600260205260405f206114cd565b61054f60405192839233968461166f565b0390a3005b34610150575f36600319011261015057335f525f60205260405f2080545f8255806105ad575b5f6002838260018201550155337f626625ff1b898b009fac170363c361e94c6185e694712a660124a5ea7885e17c5f80a2005b6001600160fe1b038116810361064957815f5260205f209060021b8101905b8181106105d9575061057a565b806105e660049254611061565b80610605575b505f60018201555f60028201555f6003820155016105cc565b601f811160011461061b57505f81555b846105ec565b61063890825f526001601f60205f20920160051c820191016114b7565b805f525f6020812081835555610615565b634e487b7160e01b5f52601160045260245ffd5b3461015057604036600319011261015057610676610eee565b6001600160a01b03165f908152600260205260409020805460243590811015610150576106a291611048565b506106ac81611104565b600182015460028301546003909301546040519384936102329360a083901c60ff16926001600160a01b0390811692911690866111a4565b34610150576020366003190112610150576001600160a01b03610705610eee565b165f526001602052602060405f2054604051908152f35b34610150576020366003190112610150576001600160a01b0361073d610eee565b165f52600160205260405f2080546107548161123d565b9161076260405193846110e3565b81835260208301905f5260205f205f915b83831061078857604051806102328782610f28565b6004602060019260405161079b81611099565b6107a486611104565b8152848060a01b0385870154168382015260ff6002870154868060a01b038116604084015260a01c16606082015260038601546080820152815201920192019190610773565b34610150576020366003190112610150576001600160a01b0361080b610eee565b165f525f6020526020600160405f200154604051908152f35b34610150576040366003190112610150576004356001600160401b0381116101505761085490369060040161120d565b906024356001600160401b0381116101505761087490369060040161120d565b91906032841161097657828403610921575f5b8481106108c357846040519081524260208201527fb35b97af951473a0cdf8bc3a4260aa0f4954083a548545a8a68ad61e039dfcdf60403392a2005b6108dd6127106108d48388876116a2565b905011156116e3565b6108e88186856116a2565b85839293101561090d57600192610907918360051b860135913361173c565b01610887565b634e487b7160e01b5f52603260045260245ffd5b60405162461bcd60e51b815260206004820152602760248201527f4379636c654461746153746f726167653a204172726179206c656e677468206d6044820152660d2e6dac2e8c6d60cb1b6064820152608490fd5b60405162461bcd60e51b815260206004820152602160248201527f4379636c654461746153746f726167653a20426174636820746f6f206c6172676044820152606560f81b6064820152608490fd5b34610150575f36600319011261015057335f52600160205260405f2080546109ec8161123d565b916109fa60405193846110e3565b81835260208301905f5260205f205f915b838310610a2057604051806102328782610f28565b60046020600192604051610a3381611099565b610a3c86611104565b8152848060a01b0385870154168382015260ff6002870154868060a01b038116604084015260a01c16606082015260038601546080820152815201920192019190610a0b565b3461015057608036600319011261015057610a9b610eee565b6024356001600160a01b0381169190829003610150576044356001600160401b03811161015057610ad09036906004016111e0565b6064359160ff831693848403610150576001600160a01b0316938415610bab577fccbcde80ab83c70dcaabb6ff3b685028b96ef5fcc84ef67f6877971ff25aa4dd93610b9f61054f92610b24891515611309565b610b30888a1415611361565b610b3b8615156113c2565b610b48600282111561141a565b60405190610b5582611099565b610b60368888611472565b82528860208301528960408301526060820152426080820152875f526001602052610b8e8160405f206114cd565b885f52600260205260405f206114cd565b6040519384938461166f565b606460405162461bcd60e51b815260206004820152602060248201527f4379636c654461746153746f726167653a20496e76616c6964207368617265726044820152fd5b3461015057604036600319011261015057610c08610eee565b6001600160a01b03165f908152600160205260409020805460243590811015610150576106a291611048565b34610150575f3660031901126101505760206040516127108152f35b3461015057606036600319011261015057610c69610eee565b6001600160a01b03165f9081526020819052604090208054604435906024359080821015610da4578211610d4d5781811015610d085780820391821161064957610cb282611254565b925f5b838110610cd2576040516020808252819061023290820188610fc9565b8083019081841161064957610cec61033660019385611048565b610cf682886112bc565b52610d0181876112bc565b5001610cb5565b60405162461bcd60e51b815260206004820152601f60248201527f4379636c654461746153746f726167653a20496e76616c69642072616e6765006044820152606490fd5b60405162461bcd60e51b815260206004820152602960248201527f4379636c654461746153746f726167653a20456e6420696e646578206f7574206044820152686f6620626f756e647360b81b6064820152608490fd5b60405162461bcd60e51b815260206004820152602b60248201527f4379636c654461746153746f726167653a20537461727420696e646578206f7560448201526a74206f6620626f756e647360a81b6064820152608490fd5b34610150575f36600319011261015057335f52600260205260405f208054610e248161123d565b91610e3260405193846110e3565b81835260208301905f5260205f205f915b838310610e5857604051806102328782610f28565b60046020600192604051610e6b81611099565b610e7486611104565b8152848060a01b0385870154168382015260ff6002870154868060a01b038116604084015260a01c16606082015260038601546080820152815201920192019190610e43565b34610150576020366003190112610150576020906001600160a01b03610ede610eee565b165f526002825260405f20548152f35b600435906001600160a01b038216820361015057565b805180835260209291819084018484015e5f828201840152601f01601f1916010190565b602081016020825282518091526040820191602060408360051b8301019401925f915b838310610f5a57505050505090565b9091929394602080600192603f19858203018652885190608080610f87845160a0855260a0850190610f04565b93878060a01b03868201511686850152878060a01b03604082015116604085015260ff6060820151166060850152015191015297019301930191939290610f4b565b9080602083519182815201916020808360051b8301019401925f915b838310610ff457505050505090565b9091929394602080600192601f198582030186528851906060806110218451608085526080850190610f04565b93858101518685015260408101516040850152015191015297019301930191939290610fe5565b805482101561090d575f5260205f209060021b01905f90565b90600182811c9216801561108f575b602083101461107b57565b634e487b7160e01b5f52602260045260245ffd5b91607f1691611070565b60a081019081106001600160401b038211176110b457604052565b634e487b7160e01b5f52604160045260245ffd5b608081019081106001600160401b038211176110b457604052565b90601f801991011681019081106001600160401b038211176110b457604052565b9060405191825f82549261111784611061565b8084529360018116908115611182575060011461113e575b5061113c925003836110e3565b565b90505f9291925260205f20905f915b81831061116657505090602061113c928201015f61112f565b602091935080600191548385890101520191019091849261114d565b90506020925061113c94915060ff191682840152151560051b8201015f61112f565b919594936080936111bf60ff9360a0865260a0860190610f04565b6001600160a01b039889166020860152971660408401521660608201520152565b9181601f84011215610150578235916001600160401b038311610150576020838186019501011161015057565b9181601f84011215610150578235916001600160401b038311610150576020808501948460051b01011161015057565b6001600160401b0381116110b45760051b60200190565b9061125e8261123d565b61126b60405191826110e3565b828152809261127c601f199161123d565b01905f5b82811061128c57505050565b60209060405161129b816110c8565b606081525f838201525f60408201525f606082015282828501015201611280565b805182101561090d5760209160051b010190565b906040516112dd816110c8565b6060600382946112ec81611104565b845260018101546020850152600281015460408501520154910152565b1561131057565b60405162461bcd60e51b815260206004820152602360248201527f4379636c654461746153746f726167653a20496e76616c696420726563697069604482015262195b9d60ea1b6064820152608490fd5b1561136857565b60405162461bcd60e51b815260206004820152602c60248201527f4379636c654461746153746f726167653a2043616e6e6f74207368617265207760448201526b34ba34103cb7bab939b2b63360a11b6064820152608490fd5b156113c957565b60405162461bcd60e51b815260206004820152602360248201527f4379636c654461746153746f726167653a20496e76616c6964204950465320686044820152620c2e6d60eb1b6064820152608490fd5b1561142157565b60405162461bcd60e51b8152602060048201526024808201527f4379636c654461746153746f726167653a20496e76616c6964207368617265206044820152637479706560e01b6064820152608490fd5b9291926001600160401b0382116110b4576040519161149b601f8201601f1916602001846110e3565b829481845281830111610150578281602093845f960137010152565b8181106114c2575050565b5f81556001016114b7565b8054600160401b8110156110b4576114ea91600182018155611048565b91909161165c5780518051906001600160401b0382116110b45761150e8454611061565b601f8111611621575b50602090601f83116001146115ba57826080936003959361154d935f926115af575b50508160011b915f199060031b1c19161790565b84555b60208101516001850180546001600160a01b039283166001600160a01b03199091161790556040820151600286018054606085015160ff60a01b60a09190911b16929093166001600160a81b0319909316929092171790550151910155565b015190505f80611539565b90601f19831691855f52815f20925f5b818110611609575092600192859260809660039896106115f2575b505050811b018455611550565b01515f1983881b60f8161c191690555f80806115e5565b929360206001819287860151815501950193016115ca565b61164c90855f5260205f20601f850160051c81019160208610611652575b601f0160051c01906114b7565b5f611517565b909150819061163f565b634e487b7160e01b5f525f60045260245ffd5b9160608160ff9260209497969760408752816040880152838701375f828287010152601f80199101168401019416910152565b919081101561090d5760051b81013590601e19813603018212156101505701908135916001600160401b038311610150576020018236038113610150579190565b156116ea57565b606460405162461bcd60e51b815260206004820152602060248201527f4379636c654461746153746f726167653a204461746120746f6f206c617267656044820152fd5b5f1981146106495760010190565b90929161176661174d60035461172e565b94856003556040519261175f846110c8565b3691611472565b8152602081019142835260408201938452606082019085825260018060a01b031693845f525f60205260405f20938454600160401b8110156110b4578060016117b29201875586611048565b94909461165c57518051906001600160401b0382116110b4576117d58654611061565b601f81116118cf575b50602090601f8311600114611868579180611813926003979695945f926115af5750508160011b915f199060031b1c19161790565b85555b5160018501555160028401555191015560028101611834815461172e565b90556001429101557f196d776bd3df5dc8f3c877beec22a7b888b8ca883038df0da6b0f3fc9de3816d6020604051428152a3565b90601f19831691875f52815f20925f5b8181106118b7575091600193918560039998979694106118a0575b505050811b018555611816565b01515f1983891b60f8161c191690555f8080611893565b92936020600181928786015181550195019301611878565b6118f990875f5260205f20601f850160051c8101916020861061165257601f0160051c01906114b7565b5f6117de56fea26469706673582212209b7d173cbd82dac673418d0995cf5eadf3f5c2892630e592fa3eba401c94363a64736f6c634300081e0033","linkReferences":{}},"methodIdentifiers":{"MAX_BATCH_SIZE()":"cfdbf254","MAX_DATA_SIZE()":"22fce66f","batchStoreEncryptedData(string[],uint256[])":"474ed077","clearMyData()":"817b3583","getContractStats()":"dfe6b5d6","getEncryptedData(address)":"9218b0de","getEncryptedDataAfterTimestamp(address,uint256)":"995baa01","getEncryptedDataRange(address,uint256,uint256)":"16c895bb","getLastSyncTimestamp(address)":"54eb3591","getMyShares()":"3e83fe36","getReceivedShareCount(address)":"06f53cc6","getShareCount(address)":"729d8460","getSharedByUser(address)":"585ca844","getSharedWithMe()":"0768b426","getSharedWithUser(address)":"b00578e3","getUserEntryCount(address)":"b2a8116a","shareData(address,string,uint8)":"8c5b44d4","shareDataSponsored(address,address,string,uint8)":"340d2794","sharedByUser(address,uint256)":"2d4b4e03","sharedToUser(address,uint256)":"806c863e","storeEncryptedData(string,uint256)":"eade185a"},"id":16}